{
  "transactions": [
    {
      "hash": "0x7b76385cb42e7906c693c4b089091936f3b5a8af91b8b51c1c5336a4d8890ba5",
      "transactionType": "CREATE",
      "contractName": "stargateTransferWithCompose",
      "contractAddress": "0xd42ce6460af8eb7a73f1b0edba0f7dea4b9f2f7b",
      "function": null,
      "arguments": null,
      "transaction": {
        "from": "0x07f3c053aa0a2b23a7cc669824190f3493b4e328",
        "gas": "0xc8d31",
        "value": "0x0",
        "input": "0x6080604052348015600f57600080fd5b50610a7c8061001f6000396000f3fe608060405234801561001057600080fd5b506004361061002b5760003560e01c80631757c83f14610030575b600080fd5b61004361003e3660046105c0565b61005b565b6040516100529392919061075a565b60405180910390f35b6040805160e08101825260008082526020820181905291810182905260608082018390526080820181905260a0820181905260c082015260408051808201909152600080825260208201526000808551116100c557604051806020016040528060008152506100fe565b6100fe600062030d4060006100f660408051600360f01b602082015281516002818303018152602290910190915290565b9291906102f4565b90506040518060e001604052808963ffffffff168152602001610127886001600160a01b031690565b81526020018881526020016000815260200182815260200186815260200160405180602001604052806000815250815250925060008990506000816001600160a01b0316630d35b415866040518263ffffffff1660e01b815260040161018d919061078e565b600060405180830381865afa1580156101aa573d6000803e3d6000fd5b505050506040513d6000823e601f3d908101601f191682016040526101d291908101906107d8565b60208101516060890152604051633b6f743b60e01b81529093506001600160a01b0385169250633b6f743b9150610210908890600090600401610937565b6040805180830381865afa15801561022c573d6000803e3d6000fd5b505050506040513d601f19601f82011682018060405250810190610250919061095b565b93508360000151955060006001600160a01b0316826001600160a01b031663fc0c546a6040518163ffffffff1660e01b8152600401602060405180830381865afa1580156102a2573d6000803e3d6000fd5b505050506040513d601f19601f820116820180604052508101906102c69190610977565b6001600160a01b0316036102e65760408501516102e390876109aa565b95505b505050955095509592505050565b6060846003610304826000610363565b61ffff161461033d57610318816000610363565b604051633a51740d60e01b815261ffff90911660048201526024015b60405180910390fd5b600061034a8686866103c6565b905061035887600383610472565b979650505050505050565b60006103708260026109aa565b835110156103b75760405162461bcd60e51b8152602060048201526014602482015273746f55696e7431365f6f75744f66426f756e647360601b6044820152606401610334565b50818101600201515b92915050565b60606fffffffffffffffffffffffffffffffff82161561042c576040516001600160f01b031960f086901b1660208201526001600160801b0319608085811b8216602284015284901b16603282015260420160405160208183030381529060405261046a565b6040516001600160f01b031960f086901b1660208201526001600160801b0319608085901b1660228201526032016040516020818303038152906040525b949350505050565b6060836003610482826000610363565b61ffff161461049657610318816000610363565b8460016104a385516104dd565b6104ae9060016109bd565b86866040516020016104c49594939291906109df565b6040516020818303038152906040529150509392505050565b600061ffff82111561050c576040516306dfcc6560e41b81526010600482015260248101839052604401610334565b5090565b6001600160a01b038116811461052557600080fd5b50565b634e487b7160e01b600052604160045260246000fd5b6040805190810167ffffffffffffffff8111828210171561056157610561610528565b60405290565b604051601f8201601f1916810167ffffffffffffffff8111828210171561059057610590610528565b604052919050565b600067ffffffffffffffff8211156105b2576105b2610528565b50601f01601f191660200190565b600080600080600060a086880312156105d857600080fd5b85356105e381610510565b9450602086013563ffffffff811681146105fc57600080fd5b935060408601359250606086013561061381610510565b9150608086013567ffffffffffffffff81111561062f57600080fd5b8601601f8101881361064057600080fd5b803561065361064e82610598565b610567565b81815289602083850101111561066857600080fd5b816020840160208301376000602083830101528093505050509295509295909350565b60005b838110156106a657818101518382015260200161068e565b50506000910152565b600081518084526106c781602086016020860161068b565b601f01601f19169290920160200192915050565b63ffffffff81511682526020810151602083015260408101516040830152606081015160608301526000608082015160e0608085015261071e60e08501826106af565b905060a083015184820360a086015261073782826106af565b91505060c083015184820360c086015261075182826106af565b95945050505050565b83815260806020820152600061077360808301856106db565b90508251604083015260208301516060830152949350505050565b6020815260006107a160208301846106db565b9392505050565b6000604082840312156107ba57600080fd5b6107c261053e565b9050815181526020820151602082015292915050565b600080600060a084860312156107ed57600080fd5b6107f785856107a8565b9250604084015167ffffffffffffffff8082111561081457600080fd5b818601915086601f83011261082857600080fd5b815160208282111561083c5761083c610528565b8160051b61084b828201610567565b928352848101820192828101908b85111561086557600080fd5b83870192505b848310156109175782518681111561088257600080fd5b87016040818e03601f1901121561089857600080fd5b6108a061053e565b8582015181526040820151888111156108b857600080fd5b8083019250508d603f8301126108cd57600080fd5b858201516108dd61064e82610598565b8181528f60408386010111156108f257600080fd5b610902828983016040870161068b565b8288015250835250918301919083019061086b565b8098505050505050505061092e85606086016107a8565b90509250925092565b60408152600061094a60408301856106db565b905082151560208301529392505050565b60006040828403121561096d57600080fd5b6107a183836107a8565b60006020828403121561098957600080fd5b81516107a181610510565b634e487b7160e01b600052601160045260246000fd5b808201808211156103c0576103c0610994565b61ffff8181168382160190808211156109d8576109d8610994565b5092915050565b600086516109f1818460208b0161068b565b6001600160f81b031960f888811b82169285019283526001600160f01b031960f089901b16600184015286901b1660038201528351610a3781600484016020880161068b565b0160040197965050505050505056fea2646970667358221220863c5e7345ef7c2a264730bc08d6076fa546405dbc08111b8bec23a9e667281a64736f6c63430008190033",
        "nonce": "0xf",
        "chainId": "0xaa37dc"
      },
      "additionalContracts": [],
      "isFixedGasLimit": false
    },
    {
      "hash": "0x01f1d78797ac8e852f759fa635624289d336ad8366d53db005c35b19ce7bdb09",
      "transactionType": "CALL",
      "contractName": null,
      "contractAddress": "0x488327236b65c61a6c083e8d811a4e0d3d1d4268",
      "function": "approve(address,uint256)",
      "arguments": [
        "0x1E8A86EcC9dc41106d3834c6F1033D86939B1e0D",
        "1000000"
      ],
      "transaction": {
        "from": "0x07f3c053aa0a2b23a7cc669824190f3493b4e328",
        "to": "0x488327236b65c61a6c083e8d811a4e0d3d1d4268",
        "gas": "0xf8eb",
        "value": "0x0",
        "input": "0x095ea7b30000000000000000000000001e8a86ecc9dc41106d3834c6f1033d86939b1e0d00000000000000000000000000000000000000000000000000000000000f4240",
        "nonce": "0x10",
        "chainId": "0xaa37dc"
      },
      "additionalContracts": [],
      "isFixedGasLimit": false
    },
    {
      "hash": "0x6ceaccb2405bb012e9b2abe49effd72b64a341f8f7fd838619b31880bab7b08b",
      "transactionType": "CALL",
      "contractName": null,
      "contractAddress": "0x1e8a86ecc9dc41106d3834c6f1033d86939b1e0d",
      "function": "sendToken((uint32,bytes32,uint256,uint256,bytes,bytes,bytes),(uint256,uint256),address)",
      "arguments": [
        "(40231, 0x0000000000000000000000000a11b9af979654b3fd531f2658f512e23c6ccb61, 1000000, 999989, 0x000301001303000000000000000000000000000000030d40, 0x000000000000000000000000db6851c941f9be1da78cf1666a1bc5a64f4b45590000000000000000000000003253a335e7bffb4790aa4c25c4250d206e9b9773, 0x)",
        "(146244745566447, 0)",
        "0x0a11b9AF979654b3FD531F2658F512e23c6CCb61"
      ],
      "transaction": {
        "from": "0x07f3c053aa0a2b23a7cc669824190f3493b4e328",
        "to": "0x1e8a86ecc9dc41106d3834c6f1033d86939b1e0d",
        "gas": "0x6100c",
        "value": "0x8502421c18ef",
        "input": "0xcbef2aa9000000000000000000000000000000000000000000000000000000000000008000000000000000000000000000000000000000000000000000008502421c18ef00000000000000000000000000000000000000000000000000000000000000000000000000000000000000000a11b9af979654b3fd531f2658f512e23c6ccb610000000000000000000000000000000000000000000000000000000000009d270000000000000000000000000a11b9af979654b3fd531f2658f512e23c6ccb6100000000000000000000000000000000000000000000000000000000000f424000000000000000000000000000000000000000000000000000000000000f423500000000000000000000000000000000000000000000000000000000000000e0000000000000000000000000000000000000000000000000000000000000012000000000000000000000000000000000000000000000000000000000000001800000000000000000000000000000000000000000000000000000000000000018000301001303000000000000000000000000000000030d4000000000000000000000000000000000000000000000000000000000000000000000000000000040000000000000000000000000db6851c941f9be1da78cf1666a1bc5a64f4b45590000000000000000000000003253a335e7bffb4790aa4c25c4250d206e9b97730000000000000000000000000000000000000000000000000000000000000000",
        "nonce": "0x11",
        "chainId": "0xaa37dc"
      },
      "additionalContracts": [],
      "isFixedGasLimit": false
    }
  ],
  "receipts": [
    {
      "status": "0x1",
      "cumulativeGasUsed": "0x1e7438",
      "logs": [],
      "logsBloom": "0x00000000000000000000000000000000000000000000000000000000000000000000000000000000000000000000000000000000000000000000000000000000000000000000000000000000000000000000000000000000000000000000000000000000000000000000000000000000000000000000000000000000000000000000000000000000000000000000000000000000000000000000000000000000000000000000000000000000000000000000000000000000000000000000000000000000000000000000000000000000000000000000000000000000000000000000000000000000000000000000000000000000000000000000000000000000",
      "type": "0x2",
      "transactionHash": "0x7b76385cb42e7906c693c4b089091936f3b5a8af91b8b51c1c5336a4d8890ba5",
      "transactionIndex": "0x3",
      "blockHash": "0x4e7d99a7b0bf659e83f38e7f7a68e944bc3391f192728be8e5590b12be5ccd49",
      "blockNumber": "0x100b2e5",
      "gasUsed": "0x9a85a",
      "effectiveGasPrice": "0xf6a6d",
      "from": "0x07f3c053aa0a2b23a7cc669824190f3493b4e328",
      "to": null,
      "contractAddress": "0xd42ce6460af8eb7a73f1b0edba0f7dea4b9f2f7b",
      "l1BaseFeeScalar": "0x1db0",
      "l1BlobBaseFee": "0xfe0f2f01d8",
      "l1BlobBaseFeeScalar": "0xd2730",
      "l1Fee": "0x5e0035c09f10c",
      "l1GasPrice": "0xaec3016f1",
      "l1GasUsed": "0x6d38"
    },
    {
      "status": "0x1",
      "cumulativeGasUsed": "0x1f286f",
      "logs": [
        {
          "address": "0x488327236b65c61a6c083e8d811a4e0d3d1d4268",
          "topics": [
            "0x8c5be1e5ebec7d5bd14f71427d1e84f3dd0314c0f7b2291e5b200ac8c7c3b925",
            "0x00000000000000000000000007f3c053aa0a2b23a7cc669824190f3493b4e328",
            "0x0000000000000000000000001e8a86ecc9dc41106d3834c6f1033d86939b1e0d"
          ],
          "data": "0x00000000000000000000000000000000000000000000000000000000000f4240",
          "blockHash": "0x4e7d99a7b0bf659e83f38e7f7a68e944bc3391f192728be8e5590b12be5ccd49",
          "blockNumber": "0x100b2e5",
          "transactionHash": "0x01f1d78797ac8e852f759fa635624289d336ad8366d53db005c35b19ce7bdb09",
          "transactionIndex": "0x4",
          "logIndex": "0x1d",
          "removed": false
        }
      ],
      "logsBloom": "0x00000000000000000000000000000000000000000000000000000000003000000010000000000000000000000000000000000000000000000000000000200000000000000000000000000000000000000000000000000000000000000000000000000200000000000000000000000000000000000000000000000000000000000000000000000000000000000000000000000000000000000000000000100000020000000000000000000000000000000000000000000000000000000000000000000000000000000000000000100000000000000000000000000000000000000010000020000000000000000000000000000000000000000000000000021000",
      "type": "0x2",
      "transactionHash": "0x01f1d78797ac8e852f759fa635624289d336ad8366d53db005c35b19ce7bdb09",
      "transactionIndex": "0x4",
      "blockHash": "0x4e7d99a7b0bf659e83f38e7f7a68e944bc3391f192728be8e5590b12be5ccd49",
      "blockNumber": "0x100b2e5",
      "gasUsed": "0xb437",
      "effectiveGasPrice": "0xf6a6d",
      "from": "0x07f3c053aa0a2b23a7cc669824190f3493b4e328",
      "to": "0x488327236b65c61a6c083e8d811a4e0d3d1d4268",
      "contractAddress": null,
      "l1BaseFeeScalar": "0x1db0",
      "l1BlobBaseFee": "0xfe0f2f01d8",
      "l1BlobBaseFeeScalar": "0xd2730",
      "l1Fee": "0x5610bb45c023",
      "l1GasPrice": "0xaec3016f1",
      "l1GasUsed": "0x640"
    },
    {
      "status": "0x1",
      "cumulativeGasUsed": "0x238c17",
      "logs": [
        {
          "address": "0x488327236b65c61a6c083e8d811a4e0d3d1d4268",
          "topics": [
            "0xddf252ad1be2c89b69c2b068fc378daa952ba7f163c4a11628f55a4df523b3ef",
            "0x00000000000000000000000007f3c053aa0a2b23a7cc669824190f3493b4e328",
            "0x0000000000000000000000001e8a86ecc9dc41106d3834c6f1033d86939b1e0d"
          ],
          "data": "0x00000000000000000000000000000000000000000000000000000000000f4240",
          "blockHash": "0x4e7d99a7b0bf659e83f38e7f7a68e944bc3391f192728be8e5590b12be5ccd49",
          "blockNumber": "0x100b2e5",
          "transactionHash": "0x6ceaccb2405bb012e9b2abe49effd72b64a341f8f7fd838619b31880bab7b08b",
          "transactionIndex": "0x5",
          "logIndex": "0x1e",
          "removed": false
        },
        {
          "address": "0x488327236b65c61a6c083e8d811a4e0d3d1d4268",
          "topics": [
            "0x8c5be1e5ebec7d5bd14f71427d1e84f3dd0314c0f7b2291e5b200ac8c7c3b925",
            "0x00000000000000000000000007f3c053aa0a2b23a7cc669824190f3493b4e328",
            "0x0000000000000000000000001e8a86ecc9dc41106d3834c6f1033d86939b1e0d"
          ],
          "data": "0x0000000000000000000000000000000000000000000000000000000000000000",
          "blockHash": "0x4e7d99a7b0bf659e83f38e7f7a68e944bc3391f192728be8e5590b12be5ccd49",
          "blockNumber": "0x100b2e5",
          "transactionHash": "0x6ceaccb2405bb012e9b2abe49effd72b64a341f8f7fd838619b31880bab7b08b",
          "transactionIndex": "0x5",
          "logIndex": "0x1f",
          "removed": false
        },
        {
          "address": "0xb31d2cb502e25b30c651842c7c3293c51fe6d16f",
          "topics": [
            "0x61ed099e74a97a1d7f8bb0952a88ca8b7b8ebd00c126ea04671f92a81213318a"
          ],
          "data": "0x000000000000000000000000dc0d68899405673b932f0db7f8a49191491a5bcb0000000000000000000000000000000000000000000000000000786d0db4ef5e",
          "blockHash": "0x4e7d99a7b0bf659e83f38e7f7a68e944bc3391f192728be8e5590b12be5ccd49",
          "blockNumber": "0x100b2e5",
          "transactionHash": "0x6ceaccb2405bb012e9b2abe49effd72b64a341f8f7fd838619b31880bab7b08b",
          "transactionIndex": "0x5",
          "logIndex": "0x20",
          "removed": false
        },
        {
          "address": "0xb31d2cb502e25b30c651842c7c3293c51fe6d16f",
          "topics": [
            "0x07ea52d82345d6e838192107d8fd7123d9c2ec8e916cd0aad13fd2b60db24644"
          ],
          "data": "0x000000000000000000000000000000000000000000000000000000000000006000000000000000000000000000000000000000000000000000000000000000a000000000000000000000000000000000000000000000000000000000000000c00000000000000000000000000000000000000000000000000000000000000001000000000000000000000000d680ec569f269aa7015f7979b4f1239b5aa4582c0000000000000000000000000000000000000000000000000000000000000000000000000000000000000000000000000000000000000000000000000000000100000000000000000000000000000000000000000000000000000c9534672991",
          "blockHash": "0x4e7d99a7b0bf659e83f38e7f7a68e944bc3391f192728be8e5590b12be5ccd49",
          "blockNumber": "0x100b2e5",
          "transactionHash": "0x6ceaccb2405bb012e9b2abe49effd72b64a341f8f7fd838619b31880bab7b08b",
          "transactionIndex": "0x5",
          "logIndex": "0x21",
          "removed": false
        },
        {
          "address": "0x6edce65403992e310a62460808c4b910d972f10f",
          "topics": [
            "0x1ab700d4ced0c005b164c0f789fd09fcbb0156d4c2041b8a3bfbcd961cd1567f"
          ],
          "data": "0x00000000000000000000000000000000000000000000000000000000000000600000000000000000000000000000000000000000000000000000000000000180000000000000000000000000b31d2cb502e25b30c651842c7c3293c51fe6d16f00000000000000000000000000000000000000000000000000000000000000fc01000000000000005e00009d28000000000000000000000000c48c0736c8ae67a8c54dfb01d7ecc7190c12a04200009d27000000000000000000000000cf26a197b5353ff886919c2a2fb4c45fe233dd3f33e4910e3b779cc53875c16245dc28ab4835f3a4b1600e0d5e5bcbe2abde72d50100010000000000000000000000000a11b9af979654b3fd531f2658f512e23c6ccb6100000000000f423500000000000000000000000007f3c053aa0a2b23a7cc669824190f3493b4e328000000000000000000000000db6851c941f9be1da78cf1666a1bc5a64f4b45590000000000000000000000003253a335e7bffb4790aa4c25c4250d206e9b977300000000000000000000000000000000000000000000000000000000000000000000002c000301001101000000000000000000000000000249f001001303000000000000000000000000000000030d400000000000000000000000000000000000000000",
          "blockHash": "0x4e7d99a7b0bf659e83f38e7f7a68e944bc3391f192728be8e5590b12be5ccd49",
          "blockNumber": "0x100b2e5",
          "transactionHash": "0x6ceaccb2405bb012e9b2abe49effd72b64a341f8f7fd838619b31880bab7b08b",
          "transactionIndex": "0x5",
          "logIndex": "0x22",
          "removed": false
        },
        {
          "address": "0x1e8a86ecc9dc41106d3834c6f1033d86939b1e0d",
          "topics": [
            "0x85496b760a4b7f8d66384b9df21b381f5d1b1e79f229a47aaf4c232edc2fe59a",
            "0x33e4910e3b779cc53875c16245dc28ab4835f3a4b1600e0d5e5bcbe2abde72d5",
            "0x00000000000000000000000007f3c053aa0a2b23a7cc669824190f3493b4e328"
          ],
          "data": "0x0000000000000000000000000000000000000000000000000000000000009d2700000000000000000000000000000000000000000000000000000000000f424000000000000000000000000000000000000000000000000000000000000f4235",
          "blockHash": "0x4e7d99a7b0bf659e83f38e7f7a68e944bc3391f192728be8e5590b12be5ccd49",
          "blockNumber": "0x100b2e5",
          "transactionHash": "0x6ceaccb2405bb012e9b2abe49effd72b64a341f8f7fd838619b31880bab7b08b",
          "transactionIndex": "0x5",
          "logIndex": "0x23",
          "removed": false
        }
      ],
      "logsBloom": "0x00000100000000000000000000000000000000000000000000000000003000000010000000004020200000000000000000000000000000000000000000200000010002000000000000000008000000000000000000000000000000000000000000080200000000008200000000000000000000000000000000000010000000000000000000000020000000080000000000000400000000000000000000100000020000008000000000100000000000000000000000400000000440000000000000000002000000000000100080100000000000000000000000000000000008000010040020000200000000000000002000000000008000000000000000021000",
      "type": "0x2",
      "transactionHash": "0x6ceaccb2405bb012e9b2abe49effd72b64a341f8f7fd838619b31880bab7b08b",
      "transactionIndex": "0x5",
      "blockHash": "0x4e7d99a7b0bf659e83f38e7f7a68e944bc3391f192728be8e5590b12be5ccd49",
      "blockNumber": "0x100b2e5",
      "gasUsed": "0x463a8",
      "effectiveGasPrice": "0xf6a6d",
      "from": "0x07f3c053aa0a2b23a7cc669824190f3493b4e328",
      "to": "0x1e8a86ecc9dc41106d3834c6f1033d86939b1e0d",
      "contractAddress": null,
      "l1BaseFeeScalar": "0x1db0",
      "l1BlobBaseFee": "0xfe0f2f01d8",
      "l1BlobBaseFeeScalar": "0xd2730",
      "l1Fee": "0xb57d47bf236f",
      "l1GasPrice": "0xaec3016f1",
      "l1GasUsed": "0xd2d"
    }
  ],
  "libraries": [],
  "pending": [],
  "returns": {},
  "timestamp": 1725448573,
  "chain": 11155420,
  "commit": "a5197b1"
}